S01A0000313230425F66696E616C5F70726F6A6563742E7372656376
S113000045C0000060C000005EC000005CC000008D
S11300105AC0000058C0000056C0000054C0000080
S113002052C0000050C000004EC000004CC0000090
S11300304AC00000B5C0000046C0000044C0000033
S113004042C0000040C000003EC000003CC00000B0
S11300503AC0000038C0000036C0000034C00000C0
S113006032C0000030C000002EC000002CC00000D0
S11300702AC0000028C0000026C0000024C00000E0
S113008022C0000020C000001EC0000011241FBEBA
S1130090CFEFD0E4DEBFCDBF11E0A0E0B1E0E8EFE8
S11300A0F2E000E00BBF02C007900D92A232B1074C
S11300B0D9F721E0A2E2B1E001C01D92A932B20752
S11300C0E1F70BD117C19CCF181619065CF00895FF
S11300D0000021503109E1F74F5F5F4F8417950706
S11300E019F4089540E050E027E033E0F1CF5E9842
S11300F088B95F9A00005F9882E090E0E5CF0895A8
S1130100813118F48158F3CF08958155F0CF0895C3
S113011084E690E0D9DF88E3EADF86E0E8DF8FE079
S1130120E6DF81E0E4DF8AE090E0CECF089588B98D
S11301305E985D985F9A82E08A95F1F700C05F98B7
S11301408FE99FE00197F1F700C00000089588B996
S11301505E9A5D985F9A82E08A95F1F700C05F9895
S11301608FE99FE00197F1F700C0000008950F9315
S11301701F93CF93DF93883070F48B01880F880F1F
S1130180880F805CD4DFE801085F1F4F8991DFDFAF
S1130190C017D107D9F7DF91CF911F910F9108951F
S11301A01F920F920FB60F9211248F939F93AF93C8
S11301B0BF938091240190912501A0912601B091D3
S11301C027010197A109B109809324019093250186
S11301D0A0932601B0932701892B8A2B8B2B99F4AA
S11301E081E0809328018091060190910701A091FC
S11301F00801B09109018093240190932501A093F3
S11302002601B0932701BF91AF919F918F910F90D9
S11302100FBE0F901F901895CF93DF93CDB7DEB725
S113022068970FB6F894DEBF0FBECDBF88E0EAE052
S1130230F1E0DE01119601900D928A95E1F788E0D4
S1130240E2E1F1E0DE01199601900D928A95E1F761
S113025088E0EAE1F1E0DE01519601900D928A9581
S1130260E1F7BE016F5F7F4F80E081DFBE01675F12
S11302707F4F81E07CDFBE016F5E7F4F82E077DFDE
S113028068960FB6F894DEBF0FBECDBFDF91CF9155
S11302900895109223011092220180E090E0FC0165
S11302A0ED5FFE4F80812CDF80E051DFE091220181
S11302B0F0912301E050FF4F808122DF81E047DF8E
S11302C080912201909123010196909323018093C0
S11302D022018330910518F3089511B88FEF84B982
S11302E087B98AB982B915B818B81BB811DF94DF79
S10B02F0D0DFFFCFF894FFCF2B
S11302F807141A02091C01000000000E17FF0A0A5D
S11303080E000EFF15FF0A000A0E0E0E04FF040A63
S10503180A0ACB
S9030000FC
