:100000004CC0000067C0000065C0000063C0000075
:1000100061C000005FC000005DC000005BC0000068
:1000200059C0000057C0000055C0000053C0000078
:1000300051C0000010C100004DC000004BC00000C6
:1000400049C0000047C0000045C0000043C0000098
:1000500041C000003FC000003DC000003BC00000A8
:1000600039C0000037C0000035C0000033C00000B8
:1000700031C000002FC000002DC000002BC00000C8
:1000800029C0000027C0000025C00000A401A7016E
:10009000AE01B201B601DC01DF0111241FBECFEFBA
:1000A000D0E4DEBFCDBF11E0A0E0B1E0EAEEFAE0BF
:1000B00000E00BBF02C007900D92A838B107D9F736
:1000C00021E0A8E8B1E001C01D92A83AB207E1F72B
:1000D00018D409C595CF181619065CF008950000CC
:1000E00021503109E1F74F5F5F4F8417950719F4ED
:1000F000089540E050E027E033E0F1CF5E9888B902
:100100005F9A00005F9882E090E0E5CF089581E07B
:10011000F5CF0895813118F48158F0CF08958155B5
:10012000EDCF089584E690E0D6DF88E3E7DF86E050
:10013000E5DF8FE0E3DF81E0E1DF8AE090E0CBCF35
:1001400008955E9A88B95F9A00005F9881E090E018
:10015000C2CF08950F931F93CF93DF93182FEB0116
:10016000D6DF8881882351F001E0010F812FD2DF93
:100170008991E7DF102F88818111F6CFDF91CF9130
:100180001F910F91089588B95E985D985F9A00005D
:100190005F9883EF91E00197F1F700C000000895A8
:1001A00088B95E9A5D985F9A00005F9883EF91E04E
:1001B0000197F1F700C0000008950F931F93CF93AC
:1001C000DF93883070F48B01880F880F880F805C74
:1001D000DADFE801085F1F4F8991E2DFC017D1071E
:1001E000D9F7DF91CF911F910F91089560930B0183
:1001F00070930C0180930D0190930E016093A30105
:100200007093A4018093A5019093A60108958BE0BB
:10021000809381008DE790E090938900809388001F
:1002200082E080936F00109285001092840080918C
:100230000B0190910C01A0910D01B0910E018093E2
:10024000A3019093A401A093A501B093A6018FB739
:1002500080688FBF08951F920F920FB60F921124DE
:100260008F939F93AF93BF938091A3019091A4012B
:10027000A091A501B091A6010197A109B1098093B0
:10028000A3019093A401A093A501B093A601892B8B
:100290008A2B8B2B99F481E08093A70180910B012D
:1002A00090910C01A0910D01B0910E018093A301DA
:1002B0009093A401A093A501B093A601BF91AF9123
:1002C0009F918F910F900FBE0F901F90189584B142
:1002D000876084B90895299A299808952A9A81E017
:1002E000982F9A95F1F72A988A95F1F70895CF9368
:1002F000DF93D82FC8E0DD2314F4289A01C0289892
:10030000EADFDD0FC150B9F7E9DFDF91CF91089542
:100310009F92AF92BF92CF92DF92EF92FF920F9394
:100320001F93CF93DF93CDB7DEB7A0970FB6F894A6
:10033000DEBF0FBECDBF20B18730910508F042C0AF
:10034000FC01EA5BFF4FA1C3029B70C04CC020FFC1
:10035000F7C121FFF8C123FFF9C168C081E0809394
:10036000000164C081E18093000160C010928901A6
:1003700010928A0181E180930001E4E0F1E082E0E3
:10038000808389E081838CE18283E1E0F1E087E092
:10039000808384E181838AE18283109288018EE1E7
:1003A00090E0A0E0B0E080938E0190938F01A09345
:1003B0009001B09391011BC0039BCBC1EFC0039B85
:1003C000CBC115C18130910589F124F4009709F062
:1003D000C5C109C08530910509F4E0C0863091059A
:1003E00009F405C1BBC18091890181119DC185E1DD
:1003F000EFE0F1E0DE01119601900D928A95E1F7B0
:10040000FE0176968BE0DF011D928A95E9F7BE0129
:100410006F5F7F4F81E09EDE10928A01809189019B
:100420008F5F8093890180E090E098C110928901EC
:1004300080918801811102C05ADF13C0813019F404
:1004400083E055DF0EC0823019F48FE050DF09C021
:10045000833019F48FE34BDF04C0843011F48FEF45
:1004600046DF4091000150918A0110918801C090AF
:100470008E01D0908F01E0909001F0909101E4E026
:10048000F1E0A1E0B1E081E090E070E060E00DE03B
:100490000F2EFAE09F2EF02D0F2EF7E0AF2EF02D4D
:1004A0006894BB24B2F801C0C9012081241342C062
:1004B0001082533041F41F5F25E0C21AD108E108D1
:1004C000F1085B2D4DC0563041F41F5F25E0C21A84
:1004D000D108E108F1085A2D43C0593041F41F5F9B
:1004E00025E0C21AD108E108F108592D39C05C3065
:1004F00041F41F5F25E0C21AD108E108F108502F2E
:100500002FC050938A0110938801C0928E01D0921F
:100510008F01E0929001F092910170938B016093B2
:100520008C015F3009F403C15F5F50938A0181E061
:1005300090E014C12C91421313C050938A01109380
:100540008801C0928E01D0928F01E0929001F092CA
:10055000910170938B0160938C0186E090E0FEC066
:100560009C012F5F3F4F31961196782F692F2430D1
:10057000310509F099CF50938A0110938801C092F8
:100580008E01D0928F01E0929001F09291019093B0
:100590008C0180938B0181E090E0E0C08091890123
:1005A0008111C8C061E08AE090E08FD265E081E00F
:1005B00090E08BD28DE1EFE2F1E0DE011196019047
:1005C0000D928A95E1F7FE017E9683E0DF011D9290
:1005D0008A95E9F7BE016F5F7F4F81E0BBDD8091B7
:1005E00089018F5F8093890185E090E0B7C0809199
:1005F00089018111A2C081E090E05FD2182F8AE0CA
:1006000090E05BD2282F30E07901EE0CFF1C220F26
:10061000331F220F331F220F331FE20EF31EE10E92
:10062000F11C80918A01282F30E0E216F306F0F4E5
:100630001DEC819F612D11246695669566958AE073
:1006400090E043D260918A01619F112D112416958B
:1006500016951695110F812F880F880F180F611BA3
:1006600081E090E032D2E0908A01F12C8DE1EFE45C
:10067000F1E0DE01119601900D928A95E1F7FE01FD
:100680007E9683E0DF011D928A95E9F7BE016F5FD8
:100690007F4F81E05FDD8EE03DDD80918A011DECC2
:1006A000819F812D1124869586958695805D49DDF3
:1006B0008FE030DD80918A01819F112D11241695E4
:1006C00016951695110F912F990F990F190F811BE0
:1006D000805D37DD8AE11EDD9701ADECBCECDED13B
:1006E0008C0116950795169507951695079580E345
:1006F000800F27DD8BE10EDDC801880F991F000FE9
:10070000111F000F111F000F111F080F191FC70124
:10071000801B910B805D15DD809189018F5F809337
:10072000890186E090E01AC080E090E017C085E083
:1007300090E014C085E090E011C086E090E00EC02B
:1007400082E090E00BC083E090E008C084E090E09D
:1007500005C084E090E002C084E090E0A0960FB66F
:10076000F894DEBF0FBECDBFDF91CF911F910F91E7
:10077000FF90EF90DF90CF90BF90AF909F90089543
:10078000CF93DF93CDB7DEB768970FB6F894DEBF8F
:100790000FBECDBF88E0EFE6F1E0DE0111960190DB
:1007A0000D928A95E1F788E0E7E7F1E0DE0119961E
:1007B00001900D928A95E1F788E0EFE7F1E0DE0124
:1007C000519601900D928A95E1F7BE016F5F7F4FC0
:1007D00080E0F3DCBE01675F7F4F81E0EEDCBE01AD
:1007E0006F5E7F4F82E0E9DC68960FB6F894DEBF5B
:1007F0000FBECDBFDF91CF910895809100018ADCBB
:1008000082E0CEDC10928C0110928B0180E090E0AF
:10081000FC01EC5FFE4F80817DDC80E0C1DCE0917B
:100820008B01F0918C01EF5FFE4F808173DC81E0E2
:10083000B7DC80918B0190918C01019690938C0193
:1008400080938B018330910518F30895CF93DF9344
:10085000E4E0F1E0A1E0B1E027E031E06FE190E118
:1008600050E24FE08081813011F490830AC0811101
:1008700002C0908306C0813111F4608302C08150B0
:100880008083ED018C91811102C04C9306C08131AF
:1008900011F4588302C08150888331961196E21773
:1008A000F30701F783E090E090938C0180938B0134
:1008B000DF91CF9108958130910531F0823091051B
:1008C00049F0892BD9F417C0209198012150233089
:1008D00060F0089580919801845031E020E08330E9
:1008E00008F030E0832F922F089511DC86DFAEDF11
:1008F00082E090E0089581E090E0089580E090E04B
:10090000089511B88FEF84B987B98AB982B915B83B
:1009100018B81BB807DCDBDC33DFE8E9F1E0108254
:1009200085E090E0A0E0B0E081839283A383B4836C
:1009300085839683A783B08788E891E09287818733
:10094000EDE8F1E010828EE190E0A0E0B0E081837C
:100950009283A383B48385839683A783B0878BE533
:1009600094E092878187E7E0F1E0A081B181119660
:100970008D909D90AD90BC9014970280F381E02DF6
:10098000518142813381248102C04B015C01652F7A
:10099000742F832F922FA501940155D0582D492DE6
:1009A0003A2D2B2D611571058105910571F7C50152
:1009B000B4011CDC2CDC0F2EFBE0CF2EF1E0DF2E8F
:1009C000F02DC7E0D1E07E0108811981D80115968C
:1009D0004D915D916D917C91189711968D919D919E
:1009E0000D90BC91A02D481759076A077B0789F421
:1009F000F80180810184F285E02D082E000C990B0E
:100A00000995D8018C93E881F981158216821782A5
:100A10001086D701ED91FC91229685819681A78160
:100A2000B085880D991DAA1DBB1D85839683A7835C
:100A3000B087CC16DD0639F68091A7018823E1F353
:100A40001092A701BECFA1E21A2EAA1BBB1BFD016B
:100A50000DC0AA1FBB1FEE1FFF1FA217B307E4079D
:100A6000F50720F0A21BB30BE40BF50B661F771FF5
:100A7000881F991F1A9469F76095709580959095D5
:100A80009B01AC01BD01CF010895EE0FFF1F0024B3
:100A9000001C0BBE0790F691E02D0994A29FB001B7
:100AA000B39FC001A39F700D811D1124911DB29FA2
:100AB000700D811D1124911D0895F999FECF92BDED
:100AC00081BDF89A992780B50895262FF999FECF10
:100AD0001FBA92BD81BD20BD0FB6F894FA9AF99A5B
:0A0AE0000FBE01960895F894FFCFB1
:100AEA001107141A02091C98018D01010000005017
:100AFA0072657373203320746F207374617274206B
:100B0A002020200000000000000000000000005922
:100B1A006F752057696E21205072657373203420D7
:100B2A00706C617920616761696E21000000004C78
:100B3A006F736521596F7520676F743A20202048BA
:100B4A006967686573743A2020202000000000005D
:100B5A000E17FF0A0A0E000EFF15FF0A000A0E0EF4
:080B6A000E04FF040A0A0A0050
:00000001FF
